:100000000C942A000C94E6000C9447000C944700D2
:100010000C9447000C9447000C9447000C94470044
:100020000C9447000C9406010C9447000C94470074
:100030000C9447000C9447000C9447000C94470024
:100040000C9447000C9447000C9447000C94470014
:100050000C94470011241FBECFE5D4E0DEBFCDBF16
:1000600010E0A0E6B0E0ECE6F3E002C005900D92EF
:10007000A036B107D9F710E0A0E6B0E001C01D92AC
:10008000AB36B107E1F70E9435010C94B4010C9432
:10009000000011BA8FEF8ABB08958BB780648BBFC5
:1000A00085B7836085BF089583B7856083BF8FE67A
:1000B00082BF89B7816089BF0895F89411BA8FEF24
:1000C0008ABB8BB780648BBF85B7836085BF83B7DE
:1000D000856083BF8FE682BF89B7816089BF7894CE
:1000E00008958830D1F1893090F4833061F1843003
:1000F00028F4813011F1823020F521C0853039F1AA
:10010000853018F1863029F18730D9F524C08D303B
:1001100071F18E3048F48A3021F18A3000F18B3051
:1001200011F18C3071F521C08F3029F18F3008F139
:100130008D3219F18F3529F522C089EF089580ECB1
:10014000089584EA089580EB089589E9089582E985
:10015000089582E8089588EF089580E8089580E979
:10016000089588E8089583E8089586EC089581EA63
:10017000089586E808958EE808958FED089587EF35
:1001800008958FEF0895DF9A20E030E087FD02C0E8
:10019000DD9801C0DD9ADE98DE9A2F5F3F4F283050
:1001A000310511F0880FF2CF80E090E067FD02C0CA
:1001B000DD9801C0DD9ADE98DE9A019688309105BF
:1001C00011F0660FF3CFDF98DF9A08951F920F9218
:1001D0000FB60F9211242F938F939F9380916500F8
:1001E000909166000196909366008093650080511F
:1001F000974224F010926600109265009F918F91B3
:100200002F910F900FBE0F901F9018951F920F9275
:100210000FB60F9211248F939F9378948EE082BF34
:10022000809161008F5F80936100803228F010928E
:10023000610081E08093600080916000882371F00C
:100240001092600080916500909166009093640028
:100250008093630010926600109265009F918F91C9
:100260000F900FBE0F901F9018951F930E945D0076
:1002700011E02091630030916400C90168EE73E0E1
:100280000E94A001CB016AE070E00E94A001F82F5B
:1002900080936700C90164E670E00E94A001CB0171
:1002A0006AE070E00E94A001E82F80936800C90115
:1002B0006AE070E00E94A001CB016AE070E00E9459
:1002C000A001482F80936900C9016AE070E00E9494
:1002D000A001982F80936A00809162008F5F8093C5
:1002E0006200853010F010936200809162008230CD
:1002F00081F0833018F4813001F505C0833079F046
:100300008430D9F412C08F2F0E947100682F81E0D1
:1003100011C08E2F0E947100682F82E00BC0842FC5
:100320000E947100682F84E005C0892F0E9471002F
:10033000682F88E00E94C3009CCF1093620099CF81
:10034000AA1BBB1B51E107C0AA1FBB1FA617B707FB
:1003500010F0A61BB70B881F991F5A95A9F7809517
:0C0360009095BC01CD010895F894FFCFEA
:00000001FF
